{
  "contractName": "Dex",
  "abi": [
    {
      "inputs": [
        {
          "internalType": "bytes32",
          "name": "_ticker",
          "type": "bytes32"
        },
        {
          "internalType": "address",
          "name": "_tokenAddress",
          "type": "address"
        }
      ],
      "name": "addToken",
      "outputs": [],
      "stateMutability": "nonpayable",
      "type": "function"
    },
    {
      "inputs": [
        {
          "internalType": "address",
          "name": "",
          "type": "address"
        },
        {
          "internalType": "bytes32",
          "name": "",
          "type": "bytes32"
        }
      ],
      "name": "balances",
      "outputs": [
        {
          "internalType": "uint256",
          "name": "",
          "type": "uint256"
        }
      ],
      "stateMutability": "view",
      "type": "function"
    },
    {
      "inputs": [
        {
          "internalType": "bytes32",
          "name": "_ticker",
          "type": "bytes32"
        },
        {
          "internalType": "uint256",
          "name": "_amount",
          "type": "uint256"
        }
      ],
      "name": "deposit",
      "outputs": [],
      "stateMutability": "nonpayable",
      "type": "function"
    },
    {
      "inputs": [],
      "name": "depositEth",
      "outputs": [],
      "stateMutability": "payable",
      "type": "function"
    },
    {
      "inputs": [
        {
          "internalType": "uint256",
          "name": "",
          "type": "uint256"
        }
      ],
      "name": "tokenList",
      "outputs": [
        {
          "internalType": "bytes32",
          "name": "",
          "type": "bytes32"
        }
      ],
      "stateMutability": "view",
      "type": "function"
    },
    {
      "inputs": [
        {
          "internalType": "bytes32",
          "name": "",
          "type": "bytes32"
        }
      ],
      "name": "tokenMapping",
      "outputs": [
        {
          "internalType": "bytes32",
          "name": "ticker",
          "type": "bytes32"
        },
        {
          "internalType": "address",
          "name": "tokenAddress",
          "type": "address"
        }
      ],
      "stateMutability": "view",
      "type": "function"
    },
    {
      "inputs": [
        {
          "internalType": "bytes32",
          "name": "_ticker",
          "type": "bytes32"
        },
        {
          "internalType": "uint256",
          "name": "_amount",
          "type": "uint256"
        }
      ],
      "name": "withdraw",
      "outputs": [],
      "stateMutability": "nonpayable",
      "type": "function"
    },
    {
      "inputs": [
        {
          "internalType": "uint256",
          "name": "_orderType",
          "type": "uint256"
        },
        {
          "internalType": "bytes32",
          "name": "_ticker",
          "type": "bytes32"
        },
        {
          "internalType": "uint256",
          "name": "_amount",
          "type": "uint256"
        },
        {
          "internalType": "uint256",
          "name": "_price",
          "type": "uint256"
        }
      ],
      "name": "createLimitOrder",
      "outputs": [],
      "stateMutability": "nonpayable",
      "type": "function"
    },
    {
      "inputs": [
        {
          "internalType": "bytes32",
          "name": "_ticker",
          "type": "bytes32"
        },
        {
          "internalType": "uint256",
          "name": "_type",
          "type": "uint256"
        }
      ],
      "name": "getOrderBook",
      "outputs": [
        {
          "components": [
            {
              "internalType": "uint256",
              "name": "id",
              "type": "uint256"
            },
            {
              "internalType": "address",
              "name": "trader",
              "type": "address"
            },
            {
              "internalType": "enum Dex.Type",
              "name": "orderType",
              "type": "uint8"
            },
            {
              "internalType": "bytes32",
              "name": "ticker",
              "type": "bytes32"
            },
            {
              "internalType": "uint256",
              "name": "amount",
              "type": "uint256"
            },
            {
              "internalType": "uint256",
              "name": "price",
              "type": "uint256"
            }
          ],
          "internalType": "struct Dex.Order[]",
          "name": "",
          "type": "tuple[]"
        }
      ],
      "stateMutability": "view",
      "type": "function"
    },
    {
      "inputs": [
        {
          "internalType": "bytes32",
          "name": "_ticker",
          "type": "bytes32"
        },
        {
          "internalType": "enum Dex.Type",
          "name": "_order",
          "type": "uint8"
        }
      ],
      "name": "getOrderBook",
      "outputs": [
        {
          "components": [
            {
              "internalType": "uint256",
              "name": "id",
              "type": "uint256"
            },
            {
              "internalType": "address",
              "name": "trader",
              "type": "address"
            },
            {
              "internalType": "enum Dex.Type",
              "name": "orderType",
              "type": "uint8"
            },
            {
              "internalType": "bytes32",
              "name": "ticker",
              "type": "bytes32"
            },
            {
              "internalType": "uint256",
              "name": "amount",
              "type": "uint256"
            },
            {
              "internalType": "uint256",
              "name": "price",
              "type": "uint256"
            }
          ],
          "internalType": "struct Dex.Order[]",
          "name": "",
          "type": "tuple[]"
        }
      ],
      "stateMutability": "view",
      "type": "function"
    }
  ],
  "bytecode": "0x60806040526040518060400160405280600381526020017f45544800000000000000000000000000000000000000000000000000000000008152506200004590620000a5565b6000553480156200005557600080fd5b5062000115565b600081519050919050565b6000819050602082019050919050565b6000819050919050565b60006200008f825162000077565b80915050919050565b600082821b905092915050565b6000620000b2826200005c565b82620000be8462000067565b9050620000cb8162000081565b925060208210156200010e57620001097fffffffffffffffffffffffffffffffffffffffffffffffffffffffffffffffff8360200360080262000098565b831692505b5050919050565b61206380620001256000396000f3fe6080604052600436106100915760003560e01c8063667cb4ba11610059578063667cb4ba1461016c5780637b2fcfff146101aa5780639776aacf146101d35780639ead7222146101fc578063ba58ea681461023957610091565b8063040cf020146100965780631585f8b8146100bf5780631de26e16146100fc5780631f14df6914610125578063439370b114610162575b600080fd5b3480156100a257600080fd5b506100bd60048036038101906100b8919061174c565b610276565b005b3480156100cb57600080fd5b506100e660048036038101906100e1919061174c565b610530565b6040516100f3919061198c565b60405180910390f35b34801561010857600080fd5b50610123600480360381019061011e919061174c565b61066d565b005b34801561013157600080fd5b5061014c600480360381019061014791906119da565b610957565b6040516101599190611a29565b60405180910390f35b61016a61097c565b005b34801561017857600080fd5b50610193600480360381019061018e9190611a44565b610a37565b6040516101a1929190611a8f565b60405180910390f35b3480156101b657600080fd5b506101d160048036038101906101cc9190611ab8565b610a7b565b005b3480156101df57600080fd5b506101fa60048036038101906101f59190611b1f565b610da5565b005b34801561020857600080fd5b50610223600480360381019061021e9190611b5f565b610e64565b6040516102309190611b8c565b60405180910390f35b34801561024557600080fd5b50610260600480360381019061025b9190611bcc565b610e88565b60405161026d919061198c565b60405180910390f35b81600073ffffffffffffffffffffffffffffffffffffffff166001600083815260200190815260200160002060010160009054906101000a900473ffffffffffffffffffffffffffffffffffffffff1673ffffffffffffffffffffffffffffffffffffffff16141561031d576040517f08c379a000000000000000000000000000000000000000000000000000000000815260040161031490611c69565b60405180910390fd5b81600360003373ffffffffffffffffffffffffffffffffffffffff1673ffffffffffffffffffffffffffffffffffffffff16815260200190815260200160002060008581526020019081526020016000205410156103b0576040517f08c379a00000000000000000000000000000000000000000000000000000000081526004016103a790611cd5565b60405180910390fd5b61041382600360003373ffffffffffffffffffffffffffffffffffffffff1673ffffffffffffffffffffffffffffffffffffffff168152602001908152602001600020600086815260200190815260200160002054610fd790919063ffffffff16565b600360003373ffffffffffffffffffffffffffffffffffffffff1673ffffffffffffffffffffffffffffffffffffffff1681526020019081526020016000206000858152602001908152602001600020819055506001600084815260200190815260200160002060010160009054906101000a900473ffffffffffffffffffffffffffffffffffffffff1673ffffffffffffffffffffffffffffffffffffffff1663a9059cbb33846040518363ffffffff1660e01b81526004016104d8929190611cf5565b602060405180830381600087803b1580156104f257600080fd5b505af1158015610506573d6000803e3d6000fd5b505050506040513d601f19601f8201168201806040525081019061052a9190611d56565b50505050565b6060600460008481526020019081526020016000206000838152602001908152602001600020805480602002602001604051908101604052809291908181526020016000905b8282101561066157838290600052602060002090600502016040518060c0016040529081600082015481526020016001820160009054906101000a900473ffffffffffffffffffffffffffffffffffffffff1673ffffffffffffffffffffffffffffffffffffffff1673ffffffffffffffffffffffffffffffffffffffff1681526020016001820160149054906101000a900460ff16600181111561061e5761061d611808565b5b60018111156106305761062f611808565b5b8152602001600282015481526020016003820154815260200160048201548152505081526020019060010190610576565b50505050905092915050565b81600073ffffffffffffffffffffffffffffffffffffffff166001600083815260200190815260200160002060010160009054906101000a900473ffffffffffffffffffffffffffffffffffffffff1673ffffffffffffffffffffffffffffffffffffffff161415610714576040517f08c379a000000000000000000000000000000000000000000000000000000000815260040161070b90611c69565b60405180910390fd5b6001600084815260200190815260200160002060010160009054906101000a900473ffffffffffffffffffffffffffffffffffffffff1673ffffffffffffffffffffffffffffffffffffffff166323b872dd3330856040518463ffffffff1660e01b815260040161078793929190611d83565b602060405180830381600087803b1580156107a157600080fd5b505af11580156107b5573d6000803e3d6000fd5b505050506040513d601f19601f820116820180604052508101906107d99190611d56565b506000600360003373ffffffffffffffffffffffffffffffffffffffff1673ffffffffffffffffffffffffffffffffffffffff168152602001908152602001600020600085815260200190815260200160002054905061089283600360003373ffffffffffffffffffffffffffffffffffffffff1673ffffffffffffffffffffffffffffffffffffffff168152602001908152602001600020600087815260200190815260200160002054610fed90919063ffffffff16565b600360003373ffffffffffffffffffffffffffffffffffffffff1673ffffffffffffffffffffffffffffffffffffffff16815260200190815260200160002060008681526020019081526020016000208190555082816108f29190611de9565b600360003373ffffffffffffffffffffffffffffffffffffffff1673ffffffffffffffffffffffffffffffffffffffff1681526020019081526020016000206000868152602001908152602001600020541461095157610950611e3f565b5b50505050565b6003602052816000526040600020602052806000526040600020600091509150505481565b6109e034600360003373ffffffffffffffffffffffffffffffffffffffff1673ffffffffffffffffffffffffffffffffffffffff16815260200190815260200160002060008054815260200190815260200160002054610fed90919063ffffffff16565b600360003373ffffffffffffffffffffffffffffffffffffffff1673ffffffffffffffffffffffffffffffffffffffff16815260200190815260200160002060008054815260200190815260200160002081905550565b60016020528060005260406000206000915090508060000154908060010160009054906101000a900473ffffffffffffffffffffffffffffffffffffffff16905082565b6000841415610b2f57610a97818361100390919063ffffffff16565b600360003373ffffffffffffffffffffffffffffffffffffffff1673ffffffffffffffffffffffffffffffffffffffff168152602001908152602001600020600080548152602001908152602001600020541015610b2a576040517f08c379a0000000000000000000000000000000000000000000000000000000008152600401610b2190611eba565b60405180910390fd5b610bd5565b610b42818361100390919063ffffffff16565b600360003373ffffffffffffffffffffffffffffffffffffffff1673ffffffffffffffffffffffffffffffffffffffff1681526020019081526020016000206000858152602001908152602001600020541015610bd4576040517f08c379a0000000000000000000000000000000000000000000000000000000008152600401610bcb90611f26565b60405180910390fd5b5b610bdd61167a565b6004600085815260200190815260200160002060008681526020019081526020016000208054905081600001818152505033816020019073ffffffffffffffffffffffffffffffffffffffff16908173ffffffffffffffffffffffffffffffffffffffff168152505060008514610c55576001610c58565b60005b81604001906001811115610c6f57610c6e611808565b5b90816001811115610c8357610c82611808565b5b815250508381606001818152505082816080018181525050818160a00181815250506004600085815260200190815260200160002060008681526020019081526020016000208190806001815401808255809150506001900390600052602060002090600502016000909190919091506000820151816000015560208201518160010160006101000a81548173ffffffffffffffffffffffffffffffffffffffff021916908373ffffffffffffffffffffffffffffffffffffffff16021790555060408201518160010160146101000a81548160ff02191690836001811115610d6f57610d6e611808565b5b0217905550606082015181600201556080820151816003015560a082015181600401555050610d9e8486611019565b5050505050565b60405180604001604052808381526020018273ffffffffffffffffffffffffffffffffffffffff16815250600160008481526020019081526020016000206000820151816000015560208201518160010160006101000a81548173ffffffffffffffffffffffffffffffffffffffff021916908373ffffffffffffffffffffffffffffffffffffffff16021790555090505060028290806001815401808255809150506001900390600052602060002001600090919091909150555050565b60028181548110610e7457600080fd5b906000526020600020016000915090505481565b6060600460008481526020019081526020016000206000836001811115610eb257610eb1611808565b5b8152602001908152602001600020805480602002602001604051908101604052809291908181526020016000905b82821015610fcb57838290600052602060002090600502016040518060c0016040529081600082015481526020016001820160009054906101000a900473ffffffffffffffffffffffffffffffffffffffff1673ffffffffffffffffffffffffffffffffffffffff1673ffffffffffffffffffffffffffffffffffffffff1681526020016001820160149054906101000a900460ff166001811115610f8857610f87611808565b5b6001811115610f9a57610f99611808565b5b8152602001600282015481526020016003820154815260200160048201548152505081526020019060010190610ee0565b50505050905092915050565b60008183610fe59190611f46565b905092915050565b60008183610ffb9190611de9565b905092915050565b600081836110119190611f7a565b905092915050565b6001600460008481526020019081526020016000206000838152602001908152602001600020805490501115611676576000600460008481526020019081526020016000206000838152602001908152602001600020905060008214156113745760006001600460008681526020019081526020016000206000858152602001908152602001600020805490506110b09190611f46565b90505b6000811180156111165750816001826110cc9190611f46565b815481106110dd576110dc611fd4565b5b90600052602060002090600502016004015482828154811061110257611101611fd4565b5b906000526020600020906005020160040154115b1561136e5760008282815481106111305761112f611fd4565b5b906000526020600020906005020190508260018361114e9190611f46565b8154811061115f5761115e611fd4565b5b90600052602060002090600502018383815481106111805761117f611fd4565b5b9060005260206000209060050201600082015481600001556001820160009054906101000a900473ffffffffffffffffffffffffffffffffffffffff168160010160006101000a81548173ffffffffffffffffffffffffffffffffffffffff021916908373ffffffffffffffffffffffffffffffffffffffff1602179055506001820160149054906101000a900460ff168160010160146101000a81548160ff0219169083600181111561123757611236611808565b5b0217905550600282015481600201556003820154816003015560048201548160040155905050808360018461126c9190611f46565b8154811061127d5761127c611fd4565b5b9060005260206000209060050201600082015481600001556001820160009054906101000a900473ffffffffffffffffffffffffffffffffffffffff168160010160006101000a81548173ffffffffffffffffffffffffffffffffffffffff021916908373ffffffffffffffffffffffffffffffffffffffff1602179055506001820160149054906101000a900460ff168160010160146101000a81548160ff0219169083600181111561133457611333611808565b5b0217905550600282015481600201556003820154816003015560048201548160040155905050818061136590612003565b925050506110b3565b50611674565b60018214156116735760006001600460008681526020019081526020016000206000858152602001908152602001600020805490506113b39190611f46565b90505b6000811180156114195750816001826113cf9190611f46565b815481106113e0576113df611fd4565b5b90600052602060002090600502016004015482828154811061140557611404611fd4565b5b906000526020600020906005020160040154105b1561167157600082828154811061143357611432611fd4565b5b90600052602060002090600502019050826001836114519190611f46565b8154811061146257611461611fd4565b5b906000526020600020906005020183838154811061148357611482611fd4565b5b9060005260206000209060050201600082015481600001556001820160009054906101000a900473ffffffffffffffffffffffffffffffffffffffff168160010160006101000a81548173ffffffffffffffffffffffffffffffffffffffff021916908373ffffffffffffffffffffffffffffffffffffffff1602179055506001820160149054906101000a900460ff168160010160146101000a81548160ff0219169083600181111561153a57611539611808565b5b0217905550600282015481600201556003820154816003015560048201548160040155905050808360018461156f9190611f46565b815481106115805761157f611fd4565b5b9060005260206000209060050201600082015481600001556001820160009054906101000a900473ffffffffffffffffffffffffffffffffffffffff168160010160006101000a81548173ffffffffffffffffffffffffffffffffffffffff021916908373ffffffffffffffffffffffffffffffffffffffff1602179055506001820160149054906101000a900460ff168160010160146101000a81548160ff0219169083600181111561163757611636611808565b5b0217905550600282015481600201556003820154816003015560048201548160040155905050818061166890612003565b925050506113b6565b505b5b505b5050565b6040518060c0016040528060008152602001600073ffffffffffffffffffffffffffffffffffffffff168152602001600060018111156116bd576116bc611808565b5b81526020016000801916815260200160008152602001600081525090565b600080fd5b6000819050919050565b6116f3816116e0565b81146116fe57600080fd5b50565b600081359050611710816116ea565b92915050565b6000819050919050565b61172981611716565b811461173457600080fd5b50565b60008135905061174681611720565b92915050565b60008060408385031215611763576117626116db565b5b600061177185828601611701565b925050602061178285828601611737565b9150509250929050565b600081519050919050565b600082825260208201905092915050565b6000819050602082019050919050565b6117c181611716565b82525050565b600073ffffffffffffffffffffffffffffffffffffffff82169050919050565b60006117f2826117c7565b9050919050565b611802816117e7565b82525050565b7f4e487b7100000000000000000000000000000000000000000000000000000000600052602160045260246000fd5b6002811061184857611847611808565b5b50565b600081905061185982611837565b919050565b60006118698261184b565b9050919050565b6118798161185e565b82525050565b611888816116e0565b82525050565b60c0820160008201516118a460008501826117b8565b5060208201516118b760208501826117f9565b5060408201516118ca6040850182611870565b5060608201516118dd606085018261187f565b5060808201516118f060808501826117b8565b5060a082015161190360a08501826117b8565b50505050565b6000611915838361188e565b60c08301905092915050565b6000602082019050919050565b60006119398261178c565b6119438185611797565b935061194e836117a8565b8060005b8381101561197f5781516119668882611909565b975061197183611921565b925050600181019050611952565b5085935050505092915050565b600060208201905081810360008301526119a6818461192e565b905092915050565b6119b7816117e7565b81146119c257600080fd5b50565b6000813590506119d4816119ae565b92915050565b600080604083850312156119f1576119f06116db565b5b60006119ff858286016119c5565b9250506020611a1085828601611701565b9150509250929050565b611a2381611716565b82525050565b6000602082019050611a3e6000830184611a1a565b92915050565b600060208284031215611a5a57611a596116db565b5b6000611a6884828501611701565b91505092915050565b611a7a816116e0565b82525050565b611a89816117e7565b82525050565b6000604082019050611aa46000830185611a71565b611ab16020830184611a80565b9392505050565b60008060008060808587031215611ad257611ad16116db565b5b6000611ae087828801611737565b9450506020611af187828801611701565b9350506040611b0287828801611737565b9250506060611b1387828801611737565b91505092959194509250565b60008060408385031215611b3657611b356116db565b5b6000611b4485828601611701565b9250506020611b55858286016119c5565b9150509250929050565b600060208284031215611b7557611b746116db565b5b6000611b8384828501611737565b91505092915050565b6000602082019050611ba16000830184611a71565b92915050565b60028110611bb457600080fd5b50565b600081359050611bc681611ba7565b92915050565b60008060408385031215611be357611be26116db565b5b6000611bf185828601611701565b9250506020611c0285828601611bb7565b9150509250929050565b600082825260208201905092915050565b7f546f6b656e20646f6573206e6f74206578697374730000000000000000000000600082015250565b6000611c53601583611c0c565b9150611c5e82611c1d565b602082019050919050565b60006020820190508181036000830152611c8281611c46565b9050919050565b7f496e73756666696369656e742062616c616e6365210000000000000000000000600082015250565b6000611cbf601583611c0c565b9150611cca82611c89565b602082019050919050565b60006020820190508181036000830152611cee81611cb2565b9050919050565b6000604082019050611d0a6000830185611a80565b611d176020830184611a1a565b9392505050565b60008115159050919050565b611d3381611d1e565b8114611d3e57600080fd5b50565b600081519050611d5081611d2a565b92915050565b600060208284031215611d6c57611d6b6116db565b5b6000611d7a84828501611d41565b91505092915050565b6000606082019050611d986000830186611a80565b611da56020830185611a80565b611db26040830184611a1a565b949350505050565b7f4e487b7100000000000000000000000000000000000000000000000000000000600052601160045260246000fd5b6000611df482611716565b9150611dff83611716565b9250827fffffffffffffffffffffffffffffffffffffffffffffffffffffffffffffffff03821115611e3457611e33611dba565b5b828201905092915050565b7f4e487b7100000000000000000000000000000000000000000000000000000000600052600160045260246000fd5b7f4e6f7420656e6f75676820657468657220666f7220746865206f726465720000600082015250565b6000611ea4601e83611c0c565b9150611eaf82611e6e565b602082019050919050565b60006020820190508181036000830152611ed381611e97565b9050919050565b7f4e6f7420656e6f75676820746f6b656e7320666f7220746865206f7264657200600082015250565b6000611f10601f83611c0c565b9150611f1b82611eda565b602082019050919050565b60006020820190508181036000830152611f3f81611f03565b9050919050565b6000611f5182611716565b9150611f5c83611716565b925082821015611f6f57611f6e611dba565b5b828203905092915050565b6000611f8582611716565b9150611f9083611716565b9250817fffffffffffffffffffffffffffffffffffffffffffffffffffffffffffffffff0483118215151615611fc957611fc8611dba565b5b828202905092915050565b7f4e487b7100000000000000000000000000000000000000000000000000000000600052603260045260246000fd5b600061200e82611716565b9150600082141561202257612021611dba565b5b60018203905091905056fea26469706673582212201c0eff73c832c6af16e474724f7c083df96752f6cdb34a0bf311a72b7bc882ea64736f6c63430008090033",
  "immutableReferences": {},
  "source": "pragma solidity ^0.8.0;\nimport \"./wallet.sol\";\n\ncontract Dex is Wallet{\n\n    using SafeMath for uint256;\n    enum Type{\n        BUY,\n        SELL\n    }\n\n\n    struct Order{\n        uint id;\n        address trader;\n        Type orderType;\n        bytes32 ticker;\n        uint amount;\n        uint price;\n    }\n\n    mapping(bytes32 => mapping(uint => Order[])) orderBook;\n\n    function _sort(bytes32 _ticker,uint _type)private{\n        if(orderBook[_ticker][_type].length > 1){\n            Order[] storage array = orderBook[_ticker][_type];\n            if(_type == 0 ){\n                uint index = orderBook[_ticker][_type].length - 1;\n                while(index > 0 && array[index].price > array[index - 1].price){\n                    Order storage temp = array[index];\n                    array[index] = array[index - 1];\n                    array[index - 1 ] = temp;\n                    index--;\n                }\n            }\n            else if(_type == 1 ){\n                uint index = orderBook[_ticker][_type].length - 1;\n                while(index > 0 && array[index].price < array[index - 1].price){\n                    Order storage temp = array[index];\n                    array[index] = array[index - 1];\n                    array[index - 1 ] = temp;\n                    index--;\n                }\n            }\n        }\n    }\n\n    function getOrderBook(bytes32 _ticker, Type _order) public view returns(Order[] memory){\n        return orderBook[_ticker][uint(_order)];\n    }\n\n    function createLimitOrder(uint _orderType, bytes32 _ticker, uint _amount, uint _price)public {\n        if(_orderType == 0){\n            require(balances[msg.sender][ethTicker] >= _amount.mul(_price),\"Not enough ether for the order\");\n        }\n        else{\n            require(balances[msg.sender][_ticker] >= _amount.mul(_price),\"Not enough tokens for the order\");\n        }\n        Order memory _temp;\n        _temp.id = orderBook[_ticker][_orderType].length;\n        _temp.trader = msg.sender;\n        _temp.orderType = _orderType == 0?Type.BUY:Type.SELL;\n        _temp.ticker = _ticker;\n        _temp.amount = _amount;\n        _temp.price = _price;\n        orderBook[_ticker][_orderType].push(_temp);\n        _sort(_ticker,_orderType);\n    }\n\n    function getOrderBook(bytes32 _ticker, uint _type)public view returns(Order[] memory){\n        return orderBook[_ticker][_type];\n    }\n}",
  "sourcePath": "/home/dexer/Desktop/work/solidity/dex/contracts/dex.sol",
  "compiler": {
    "name": "solc",
    "version": "0.8.9+commit.e5eed63a.Emscripten.clang"
  },
  "schemaVersion": "3.4.3",
  "updatedAt": "2021-11-12T07:11:59.780Z",
  "devdoc": {
    "kind": "dev",
    "methods": {},
    "version": 1
  },
  "userdoc": {
    "kind": "user",
    "methods": {},
    "version": 1
  }
}