{
  "contractName": "Dex",
  "abi": [
    {
      "inputs": [
        {
          "internalType": "bytes32",
          "name": "_ticker",
          "type": "bytes32"
        },
        {
          "internalType": "address",
          "name": "_tokenAddress",
          "type": "address"
        }
      ],
      "name": "addToken",
      "outputs": [],
      "stateMutability": "nonpayable",
      "type": "function"
    },
    {
      "inputs": [
        {
          "internalType": "address",
          "name": "",
          "type": "address"
        },
        {
          "internalType": "bytes32",
          "name": "",
          "type": "bytes32"
        }
      ],
      "name": "balances",
      "outputs": [
        {
          "internalType": "uint256",
          "name": "",
          "type": "uint256"
        }
      ],
      "stateMutability": "view",
      "type": "function",
      "constant": true
    },
    {
      "inputs": [
        {
          "internalType": "bytes32",
          "name": "_ticker",
          "type": "bytes32"
        },
        {
          "internalType": "uint256",
          "name": "_amount",
          "type": "uint256"
        }
      ],
      "name": "deposit",
      "outputs": [],
      "stateMutability": "nonpayable",
      "type": "function"
    },
    {
      "inputs": [],
      "name": "depositEth",
      "outputs": [],
      "stateMutability": "payable",
      "type": "function",
      "payable": true
    },
    {
      "inputs": [
        {
          "internalType": "uint256",
          "name": "",
          "type": "uint256"
        }
      ],
      "name": "tokenList",
      "outputs": [
        {
          "internalType": "bytes32",
          "name": "",
          "type": "bytes32"
        }
      ],
      "stateMutability": "view",
      "type": "function",
      "constant": true
    },
    {
      "inputs": [
        {
          "internalType": "bytes32",
          "name": "",
          "type": "bytes32"
        }
      ],
      "name": "tokenMapping",
      "outputs": [
        {
          "internalType": "bytes32",
          "name": "ticker",
          "type": "bytes32"
        },
        {
          "internalType": "address",
          "name": "tokenAddress",
          "type": "address"
        }
      ],
      "stateMutability": "view",
      "type": "function",
      "constant": true
    },
    {
      "inputs": [
        {
          "internalType": "bytes32",
          "name": "_ticker",
          "type": "bytes32"
        },
        {
          "internalType": "uint256",
          "name": "_amount",
          "type": "uint256"
        }
      ],
      "name": "withdraw",
      "outputs": [],
      "stateMutability": "nonpayable",
      "type": "function"
    },
    {
      "inputs": [
        {
          "internalType": "uint256",
          "name": "_orderType",
          "type": "uint256"
        },
        {
          "internalType": "bytes32",
          "name": "_ticker",
          "type": "bytes32"
        },
        {
          "internalType": "uint256",
          "name": "_amount",
          "type": "uint256"
        },
        {
          "internalType": "uint256",
          "name": "_price",
          "type": "uint256"
        }
      ],
      "name": "createLimitOrder",
      "outputs": [],
      "stateMutability": "nonpayable",
      "type": "function"
    },
    {
      "inputs": [
        {
          "internalType": "bytes32",
          "name": "_ticker",
          "type": "bytes32"
        },
        {
          "internalType": "uint256",
          "name": "_type",
          "type": "uint256"
        }
      ],
      "name": "getOrderBook",
      "outputs": [
        {
          "components": [
            {
              "internalType": "uint256",
              "name": "id",
              "type": "uint256"
            },
            {
              "internalType": "address",
              "name": "trader",
              "type": "address"
            },
            {
              "internalType": "enum Dex.Type",
              "name": "orderType",
              "type": "uint8"
            },
            {
              "internalType": "bytes32",
              "name": "ticker",
              "type": "bytes32"
            },
            {
              "internalType": "uint256",
              "name": "amount",
              "type": "uint256"
            },
            {
              "internalType": "uint256",
              "name": "price",
              "type": "uint256"
            }
          ],
          "internalType": "struct Dex.Order[]",
          "name": "",
          "type": "tuple[]"
        }
      ],
      "stateMutability": "view",
      "type": "function",
      "constant": true
    },
    {
      "inputs": [
        {
          "internalType": "bytes32",
          "name": "_ticker",
          "type": "bytes32"
        },
        {
          "internalType": "enum Dex.Type",
          "name": "_order",
          "type": "uint8"
        }
      ],
      "name": "getOrderBook",
      "outputs": [
        {
          "components": [
            {
              "internalType": "uint256",
              "name": "id",
              "type": "uint256"
            },
            {
              "internalType": "address",
              "name": "trader",
              "type": "address"
            },
            {
              "internalType": "enum Dex.Type",
              "name": "orderType",
              "type": "uint8"
            },
            {
              "internalType": "bytes32",
              "name": "ticker",
              "type": "bytes32"
            },
            {
              "internalType": "uint256",
              "name": "amount",
              "type": "uint256"
            },
            {
              "internalType": "uint256",
              "name": "price",
              "type": "uint256"
            }
          ],
          "internalType": "struct Dex.Order[]",
          "name": "",
          "type": "tuple[]"
        }
      ],
      "stateMutability": "view",
      "type": "function",
      "constant": true
    }
  ],
  "bytecode": "0x60806040526040518060400160405280600381526020017f45544800000000000000000000000000000000000000000000000000000000008152506200004590620000a5565b6000553480156200005557600080fd5b5062000115565b600081519050919050565b6000819050602082019050919050565b6000819050919050565b60006200008f825162000077565b80915050919050565b600082821b905092915050565b6000620000b2826200005c565b82620000be8462000067565b9050620000cb8162000081565b925060208210156200010e57620001097fffffffffffffffffffffffffffffffffffffffffffffffffffffffffffffffff8360200360080262000098565b831692505b5050919050565b6121ae80620001256000396000f3fe6080604052600436106100915760003560e01c8063667cb4ba11610059578063667cb4ba1461016c5780637b2fcfff146101aa5780639776aacf146101d35780639ead7222146101fc578063ba58ea681461023957610091565b8063040cf020146100965780631585f8b8146100bf5780631de26e16146100fc5780631f14df6914610125578063439370b114610162575b600080fd5b3480156100a257600080fd5b506100bd60048036038101906100b89190611878565b610276565b005b3480156100cb57600080fd5b506100e660048036038101906100e19190611878565b610530565b6040516100f39190611ab8565b60405180910390f35b34801561010857600080fd5b50610123600480360381019061011e9190611878565b61066d565b005b34801561013157600080fd5b5061014c60048036038101906101479190611b06565b610957565b6040516101599190611b55565b60405180910390f35b61016a61097c565b005b34801561017857600080fd5b50610193600480360381019061018e9190611b70565b610a37565b6040516101a1929190611bbb565b60405180910390f35b3480156101b657600080fd5b506101d160048036038101906101cc9190611be4565b610a7b565b005b3480156101df57600080fd5b506101fa60048036038101906101f59190611c4b565b610da6565b005b34801561020857600080fd5b50610223600480360381019061021e9190611c8b565b610e65565b6040516102309190611cb8565b60405180910390f35b34801561024557600080fd5b50610260600480360381019061025b9190611cf8565b610e89565b60405161026d9190611ab8565b60405180910390f35b81600073ffffffffffffffffffffffffffffffffffffffff166001600083815260200190815260200160002060010160009054906101000a900473ffffffffffffffffffffffffffffffffffffffff1673ffffffffffffffffffffffffffffffffffffffff16141561031d576040517f08c379a000000000000000000000000000000000000000000000000000000000815260040161031490611d95565b60405180910390fd5b81600360003373ffffffffffffffffffffffffffffffffffffffff1673ffffffffffffffffffffffffffffffffffffffff16815260200190815260200160002060008581526020019081526020016000205410156103b0576040517f08c379a00000000000000000000000000000000000000000000000000000000081526004016103a790611e01565b60405180910390fd5b61041382600360003373ffffffffffffffffffffffffffffffffffffffff1673ffffffffffffffffffffffffffffffffffffffff168152602001908152602001600020600086815260200190815260200160002054610fd890919063ffffffff16565b600360003373ffffffffffffffffffffffffffffffffffffffff1673ffffffffffffffffffffffffffffffffffffffff1681526020019081526020016000206000858152602001908152602001600020819055506001600084815260200190815260200160002060010160009054906101000a900473ffffffffffffffffffffffffffffffffffffffff1673ffffffffffffffffffffffffffffffffffffffff1663a9059cbb33846040518363ffffffff1660e01b81526004016104d8929190611e21565b602060405180830381600087803b1580156104f257600080fd5b505af1158015610506573d6000803e3d6000fd5b505050506040513d601f19601f8201168201806040525081019061052a9190611e82565b50505050565b6060600460008481526020019081526020016000206000838152602001908152602001600020805480602002602001604051908101604052809291908181526020016000905b8282101561066157838290600052602060002090600502016040518060c0016040529081600082015481526020016001820160009054906101000a900473ffffffffffffffffffffffffffffffffffffffff1673ffffffffffffffffffffffffffffffffffffffff1673ffffffffffffffffffffffffffffffffffffffff1681526020016001820160149054906101000a900460ff16600181111561061e5761061d611934565b5b60018111156106305761062f611934565b5b8152602001600282015481526020016003820154815260200160048201548152505081526020019060010190610576565b50505050905092915050565b81600073ffffffffffffffffffffffffffffffffffffffff166001600083815260200190815260200160002060010160009054906101000a900473ffffffffffffffffffffffffffffffffffffffff1673ffffffffffffffffffffffffffffffffffffffff161415610714576040517f08c379a000000000000000000000000000000000000000000000000000000000815260040161070b90611d95565b60405180910390fd5b6001600084815260200190815260200160002060010160009054906101000a900473ffffffffffffffffffffffffffffffffffffffff1673ffffffffffffffffffffffffffffffffffffffff166323b872dd3330856040518463ffffffff1660e01b815260040161078793929190611eaf565b602060405180830381600087803b1580156107a157600080fd5b505af11580156107b5573d6000803e3d6000fd5b505050506040513d601f19601f820116820180604052508101906107d99190611e82565b506000600360003373ffffffffffffffffffffffffffffffffffffffff1673ffffffffffffffffffffffffffffffffffffffff168152602001908152602001600020600085815260200190815260200160002054905061089283600360003373ffffffffffffffffffffffffffffffffffffffff1673ffffffffffffffffffffffffffffffffffffffff168152602001908152602001600020600087815260200190815260200160002054610fee90919063ffffffff16565b600360003373ffffffffffffffffffffffffffffffffffffffff1673ffffffffffffffffffffffffffffffffffffffff16815260200190815260200160002060008681526020019081526020016000208190555082816108f29190611f15565b600360003373ffffffffffffffffffffffffffffffffffffffff1673ffffffffffffffffffffffffffffffffffffffff1681526020019081526020016000206000868152602001908152602001600020541461095157610950611f6b565b5b50505050565b6003602052816000526040600020602052806000526040600020600091509150505481565b6109e034600360003373ffffffffffffffffffffffffffffffffffffffff1673ffffffffffffffffffffffffffffffffffffffff16815260200190815260200160002060008054815260200190815260200160002054610fee90919063ffffffff16565b600360003373ffffffffffffffffffffffffffffffffffffffff1673ffffffffffffffffffffffffffffffffffffffff16815260200190815260200160002060008054815260200190815260200160002081905550565b60016020528060005260406000206000915090508060000154908060010160009054906101000a900473ffffffffffffffffffffffffffffffffffffffff16905082565b6000841415610b2f57610a97818361100490919063ffffffff16565b600360003373ffffffffffffffffffffffffffffffffffffffff1673ffffffffffffffffffffffffffffffffffffffff168152602001908152602001600020600080548152602001908152602001600020541015610b2a576040517f08c379a0000000000000000000000000000000000000000000000000000000008152600401610b2190611fe6565b60405180910390fd5b610bd5565b610b42818361100490919063ffffffff16565b600360003373ffffffffffffffffffffffffffffffffffffffff1673ffffffffffffffffffffffffffffffffffffffff1681526020019081526020016000206000858152602001908152602001600020541015610bd4576040517f08c379a0000000000000000000000000000000000000000000000000000000008152600401610bcb90612052565b60405180910390fd5b5b610bdd6117a6565b6004600085815260200190815260200160002060008681526020019081526020016000208054905081600001818152505033816020019073ffffffffffffffffffffffffffffffffffffffff16908173ffffffffffffffffffffffffffffffffffffffff168152505060008514610c55576001610c58565b60005b81604001906001811115610c6f57610c6e611934565b5b90816001811115610c8357610c82611934565b5b815250508381606001818152505082816080018181525050818160a00181815250506004600085815260200190815260200160002060008681526020019081526020016000208190806001815401808255809150506001900390600052602060002090600502016000909190919091506000820151816000015560208201518160010160006101000a81548173ffffffffffffffffffffffffffffffffffffffff021916908373ffffffffffffffffffffffffffffffffffffffff16021790555060408201518160010160146101000a81548160ff02191690836001811115610d6f57610d6e611934565b5b0217905550606082015181600201556080820151816003015560a082015181600401555050610d9f84868361101a565b5050505050565b60405180604001604052808381526020018273ffffffffffffffffffffffffffffffffffffffff16815250600160008481526020019081526020016000206000820151816000015560208201518160010160006101000a81548173ffffffffffffffffffffffffffffffffffffffff021916908373ffffffffffffffffffffffffffffffffffffffff16021790555090505060028290806001815401808255809150506001900390600052602060002001600090919091909150555050565b60028181548110610e7557600080fd5b906000526020600020016000915090505481565b6060600460008481526020019081526020016000206000836001811115610eb357610eb2611934565b5b8152602001908152602001600020805480602002602001604051908101604052809291908181526020016000905b82821015610fcc57838290600052602060002090600502016040518060c0016040529081600082015481526020016001820160009054906101000a900473ffffffffffffffffffffffffffffffffffffffff1673ffffffffffffffffffffffffffffffffffffffff1673ffffffffffffffffffffffffffffffffffffffff1681526020016001820160149054906101000a900460ff166001811115610f8957610f88611934565b5b6001811115610f9b57610f9a611934565b5b8152602001600282015481526020016003820154815260200160048201548152505081526020019060010190610ee1565b50505050905092915050565b60008183610fe69190612072565b905092915050565b60008183610ffc9190611f15565b905092915050565b6000818361101291906120a6565b905092915050565b60008214156113df5760005b60016004600086815260200190815260200160002060008581526020019081526020016000208054905061105a9190612072565b8110156112bf578160a00151600460008681526020019081526020016000206000858152602001908152602001600020828154811061109c5761109b612100565b5b90600052602060002090600502016004015410156112ac57600060046000868152602001908152602001600020600085815260200190815260200160002082815481106110ec576110eb612100565b5b90600052602060002090600502016040518060c0016040529081600082015481526020016001820160009054906101000a900473ffffffffffffffffffffffffffffffffffffffff1673ffffffffffffffffffffffffffffffffffffffff1673ffffffffffffffffffffffffffffffffffffffff1681526020016001820160149054906101000a900460ff16600181111561118a57611189611934565b5b600181111561119c5761119b611934565b5b8152602001600282015481526020016003820154815260200160048201548152505090508260046000878152602001908152602001600020600086815260200190815260200160002083815481106111f7576111f6612100565b5b90600052602060002090600502016000820151816000015560208201518160010160006101000a81548173ffffffffffffffffffffffffffffffffffffffff021916908373ffffffffffffffffffffffffffffffffffffffff16021790555060408201518160010160146101000a81548160ff0219169083600181111561128157611280611934565b5b0217905550606082015181600201556080820151816003015560a08201518160040155905050809250505b80806112b79061212f565b915050611026565b50806004600085815260200190815260200160002060008481526020019081526020016000206001600460008781526020019081526020016000206000868152602001908152602001600020805490506113199190612072565b8154811061132a57611329612100565b5b90600052602060002090600502016000820151816000015560208201518160010160006101000a81548173ffffffffffffffffffffffffffffffffffffffff021916908373ffffffffffffffffffffffffffffffffffffffff16021790555060408201518160010160146101000a81548160ff021916908360018111156113b4576113b3611934565b5b0217905550606082015181600201556080820151816003015560a082015181600401559050506117a1565b60018214156117a05760005b60016004600086815260200190815260200160002060008581526020019081526020016000208054905061141f9190612072565b811015611684578160a00151600460008681526020019081526020016000206000858152602001908152602001600020828154811061146157611460612100565b5b906000526020600020906005020160040154111561167157600060046000868152602001908152602001600020600085815260200190815260200160002082815481106114b1576114b0612100565b5b90600052602060002090600502016040518060c0016040529081600082015481526020016001820160009054906101000a900473ffffffffffffffffffffffffffffffffffffffff1673ffffffffffffffffffffffffffffffffffffffff1673ffffffffffffffffffffffffffffffffffffffff1681526020016001820160149054906101000a900460ff16600181111561154f5761154e611934565b5b600181111561156157611560611934565b5b8152602001600282015481526020016003820154815260200160048201548152505090508260046000878152602001908152602001600020600086815260200190815260200160002083815481106115bc576115bb612100565b5b90600052602060002090600502016000820151816000015560208201518160010160006101000a81548173ffffffffffffffffffffffffffffffffffffffff021916908373ffffffffffffffffffffffffffffffffffffffff16021790555060408201518160010160146101000a81548160ff0219169083600181111561164657611645611934565b5b0217905550606082015181600201556080820151816003015560a08201518160040155905050809250505b808061167c9061212f565b9150506113eb565b50806004600085815260200190815260200160002060008481526020019081526020016000206001600460008781526020019081526020016000206000868152602001908152602001600020805490506116de9190612072565b815481106116ef576116ee612100565b5b90600052602060002090600502016000820151816000015560208201518160010160006101000a81548173ffffffffffffffffffffffffffffffffffffffff021916908373ffffffffffffffffffffffffffffffffffffffff16021790555060408201518160010160146101000a81548160ff0219169083600181111561177957611778611934565b5b0217905550606082015181600201556080820151816003015560a082015181600401559050505b5b505050565b6040518060c0016040528060008152602001600073ffffffffffffffffffffffffffffffffffffffff168152602001600060018111156117e9576117e8611934565b5b81526020016000801916815260200160008152602001600081525090565b600080fd5b6000819050919050565b61181f8161180c565b811461182a57600080fd5b50565b60008135905061183c81611816565b92915050565b6000819050919050565b61185581611842565b811461186057600080fd5b50565b6000813590506118728161184c565b92915050565b6000806040838503121561188f5761188e611807565b5b600061189d8582860161182d565b92505060206118ae85828601611863565b9150509250929050565b600081519050919050565b600082825260208201905092915050565b6000819050602082019050919050565b6118ed81611842565b82525050565b600073ffffffffffffffffffffffffffffffffffffffff82169050919050565b600061191e826118f3565b9050919050565b61192e81611913565b82525050565b7f4e487b7100000000000000000000000000000000000000000000000000000000600052602160045260246000fd5b6002811061197457611973611934565b5b50565b600081905061198582611963565b919050565b600061199582611977565b9050919050565b6119a58161198a565b82525050565b6119b48161180c565b82525050565b60c0820160008201516119d060008501826118e4565b5060208201516119e36020850182611925565b5060408201516119f6604085018261199c565b506060820151611a0960608501826119ab565b506080820151611a1c60808501826118e4565b5060a0820151611a2f60a08501826118e4565b50505050565b6000611a4183836119ba565b60c08301905092915050565b6000602082019050919050565b6000611a65826118b8565b611a6f81856118c3565b9350611a7a836118d4565b8060005b83811015611aab578151611a928882611a35565b9750611a9d83611a4d565b925050600181019050611a7e565b5085935050505092915050565b60006020820190508181036000830152611ad28184611a5a565b905092915050565b611ae381611913565b8114611aee57600080fd5b50565b600081359050611b0081611ada565b92915050565b60008060408385031215611b1d57611b1c611807565b5b6000611b2b85828601611af1565b9250506020611b3c8582860161182d565b9150509250929050565b611b4f81611842565b82525050565b6000602082019050611b6a6000830184611b46565b92915050565b600060208284031215611b8657611b85611807565b5b6000611b948482850161182d565b91505092915050565b611ba68161180c565b82525050565b611bb581611913565b82525050565b6000604082019050611bd06000830185611b9d565b611bdd6020830184611bac565b9392505050565b60008060008060808587031215611bfe57611bfd611807565b5b6000611c0c87828801611863565b9450506020611c1d8782880161182d565b9350506040611c2e87828801611863565b9250506060611c3f87828801611863565b91505092959194509250565b60008060408385031215611c6257611c61611807565b5b6000611c708582860161182d565b9250506020611c8185828601611af1565b9150509250929050565b600060208284031215611ca157611ca0611807565b5b6000611caf84828501611863565b91505092915050565b6000602082019050611ccd6000830184611b9d565b92915050565b60028110611ce057600080fd5b50565b600081359050611cf281611cd3565b92915050565b60008060408385031215611d0f57611d0e611807565b5b6000611d1d8582860161182d565b9250506020611d2e85828601611ce3565b9150509250929050565b600082825260208201905092915050565b7f546f6b656e20646f6573206e6f74206578697374730000000000000000000000600082015250565b6000611d7f601583611d38565b9150611d8a82611d49565b602082019050919050565b60006020820190508181036000830152611dae81611d72565b9050919050565b7f496e73756666696369656e742062616c616e6365210000000000000000000000600082015250565b6000611deb601583611d38565b9150611df682611db5565b602082019050919050565b60006020820190508181036000830152611e1a81611dde565b9050919050565b6000604082019050611e366000830185611bac565b611e436020830184611b46565b9392505050565b60008115159050919050565b611e5f81611e4a565b8114611e6a57600080fd5b50565b600081519050611e7c81611e56565b92915050565b600060208284031215611e9857611e97611807565b5b6000611ea684828501611e6d565b91505092915050565b6000606082019050611ec46000830186611bac565b611ed16020830185611bac565b611ede6040830184611b46565b949350505050565b7f4e487b7100000000000000000000000000000000000000000000000000000000600052601160045260246000fd5b6000611f2082611842565b9150611f2b83611842565b9250827fffffffffffffffffffffffffffffffffffffffffffffffffffffffffffffffff03821115611f6057611f5f611ee6565b5b828201905092915050565b7f4e487b7100000000000000000000000000000000000000000000000000000000600052600160045260246000fd5b7f4e6f7420656e6f75676820657468657220666f7220746865206f726465720000600082015250565b6000611fd0601e83611d38565b9150611fdb82611f9a565b602082019050919050565b60006020820190508181036000830152611fff81611fc3565b9050919050565b7f4e6f7420656e6f75676820746f6b656e7320666f7220746865206f7264657200600082015250565b600061203c601f83611d38565b915061204782612006565b602082019050919050565b6000602082019050818103600083015261206b8161202f565b9050919050565b600061207d82611842565b915061208883611842565b92508282101561209b5761209a611ee6565b5b828203905092915050565b60006120b182611842565b91506120bc83611842565b9250817fffffffffffffffffffffffffffffffffffffffffffffffffffffffffffffffff04831182151516156120f5576120f4611ee6565b5b828202905092915050565b7f4e487b7100000000000000000000000000000000000000000000000000000000600052603260045260246000fd5b600061213a82611842565b91507fffffffffffffffffffffffffffffffffffffffffffffffffffffffffffffffff82141561216d5761216c611ee6565b5b60018201905091905056fea2646970667358221220d63acc5b0227f7b5a11b4055dbb0bb521282f044924430f16df5758181f31b2164736f6c63430008090033",
  "immutableReferences": {},
  "source": "pragma solidity ^0.8.0;\nimport \"./wallet.sol\";\n\ncontract Dex is Wallet{\n\n    using SafeMath for uint256;\n    enum Type{\n        BUY,\n        SELL\n    }\n\n\n    struct Order{\n        uint id;\n        address trader;\n        Type orderType;\n        bytes32 ticker;\n        uint amount;\n        uint price;\n    }\n\n    mapping(bytes32 => mapping(uint => Order[])) orderBook;\n\n    function _sort(bytes32 _ticker, uint _type, Order memory _temp)private{\n        if(_type == 0 ){\n            for(uint i=0; i<orderBook[_ticker][_type].length-1; i++){\n                if(orderBook[_ticker][_type][i].price < _temp.price){\n                    Order memory _swap = orderBook[_ticker][_type][i];\n                    orderBook[_ticker][_type][i] = _temp;\n                    _temp = _swap;\n                }\n            }\n            orderBook[_ticker][_type][orderBook[_ticker][_type].length - 1] = _temp; // swapping the last element to its place\n\n        }\n        else if(_type == 1 ){\n            for(uint i=0; i<orderBook[_ticker][_type].length-1; i++){\n                if(orderBook[_ticker][_type][i].price > _temp.price){\n                    Order memory _swap = orderBook[_ticker][_type][i];\n                    orderBook[_ticker][_type][i] = _temp;\n                    _temp = _swap;\n                }\n            }\n            orderBook[_ticker][_type][orderBook[_ticker][_type].length - 1] = _temp;\n        }\n    }\n\n    function getOrderBook(bytes32 _ticker, Type _order) public view returns(Order[] memory){\n        return orderBook[_ticker][uint(_order)];\n    }\n\n    function createLimitOrder(uint _orderType, bytes32 _ticker, uint _amount, uint _price)public {\n        if(_orderType == 0){\n            require(balances[msg.sender][ethTicker] >= _amount.mul(_price),\"Not enough ether for the order\");\n        }\n        else{\n            require(balances[msg.sender][_ticker] >= _amount.mul(_price),\"Not enough tokens for the order\");\n        }\n        Order memory _temp;\n        _temp.id = orderBook[_ticker][_orderType].length;\n        _temp.trader = msg.sender;\n        _temp.orderType = _orderType == 0?Type.BUY:Type.SELL;\n        _temp.ticker = _ticker;\n        _temp.amount = _amount;\n        _temp.price = _price;\n        orderBook[_ticker][_orderType].push(_temp);\n        _sort(_ticker,_orderType,_temp);\n    }\n\n    function getOrderBook(bytes32 _ticker, uint _type)public view returns(Order[] memory){\n        return orderBook[_ticker][_type];\n    }\n}",
  "sourcePath": "/home/dexer/Desktop/work/solidity/dex/contracts/dex.sol",
  "compiler": {
    "name": "solc",
    "version": "0.8.9+commit.e5eed63a.Emscripten.clang"
  },
  "schemaVersion": "3.4.3",
  "updatedAt": "2021-11-12T05:18:59.648Z",
  "networkType": "ethereum",
  "devdoc": {
    "kind": "dev",
    "methods": {},
    "version": 1
  },
  "userdoc": {
    "kind": "user",
    "methods": {},
    "version": 1
  }
}