{
  "contractName": "Dex",
  "abi": [
    {
      "inputs": [
        {
          "internalType": "bytes32",
          "name": "_ticker",
          "type": "bytes32"
        },
        {
          "internalType": "address",
          "name": "_tokenAddress",
          "type": "address"
        }
      ],
      "name": "addToken",
      "outputs": [],
      "stateMutability": "nonpayable",
      "type": "function"
    },
    {
      "inputs": [
        {
          "internalType": "address",
          "name": "",
          "type": "address"
        },
        {
          "internalType": "bytes32",
          "name": "",
          "type": "bytes32"
        }
      ],
      "name": "balances",
      "outputs": [
        {
          "internalType": "uint256",
          "name": "",
          "type": "uint256"
        }
      ],
      "stateMutability": "view",
      "type": "function",
      "constant": true
    },
    {
      "inputs": [
        {
          "internalType": "bytes32",
          "name": "_ticker",
          "type": "bytes32"
        },
        {
          "internalType": "uint256",
          "name": "_amount",
          "type": "uint256"
        }
      ],
      "name": "deposit",
      "outputs": [],
      "stateMutability": "nonpayable",
      "type": "function"
    },
    {
      "inputs": [],
      "name": "depositEth",
      "outputs": [],
      "stateMutability": "payable",
      "type": "function",
      "payable": true
    },
    {
      "inputs": [
        {
          "internalType": "uint256",
          "name": "",
          "type": "uint256"
        }
      ],
      "name": "tokenList",
      "outputs": [
        {
          "internalType": "bytes32",
          "name": "",
          "type": "bytes32"
        }
      ],
      "stateMutability": "view",
      "type": "function",
      "constant": true
    },
    {
      "inputs": [
        {
          "internalType": "bytes32",
          "name": "",
          "type": "bytes32"
        }
      ],
      "name": "tokenMapping",
      "outputs": [
        {
          "internalType": "bytes32",
          "name": "ticker",
          "type": "bytes32"
        },
        {
          "internalType": "address",
          "name": "tokenAddress",
          "type": "address"
        }
      ],
      "stateMutability": "view",
      "type": "function",
      "constant": true
    },
    {
      "inputs": [
        {
          "internalType": "bytes32",
          "name": "_ticker",
          "type": "bytes32"
        },
        {
          "internalType": "uint256",
          "name": "_amount",
          "type": "uint256"
        }
      ],
      "name": "withdraw",
      "outputs": [],
      "stateMutability": "nonpayable",
      "type": "function"
    },
    {
      "inputs": [
        {
          "internalType": "uint256",
          "name": "_orderType",
          "type": "uint256"
        },
        {
          "internalType": "bytes32",
          "name": "_ticker",
          "type": "bytes32"
        },
        {
          "internalType": "uint256",
          "name": "_amount",
          "type": "uint256"
        },
        {
          "internalType": "uint256",
          "name": "_price",
          "type": "uint256"
        }
      ],
      "name": "createLimitOrder",
      "outputs": [],
      "stateMutability": "nonpayable",
      "type": "function"
    },
    {
      "inputs": [
        {
          "internalType": "bytes32",
          "name": "_ticker",
          "type": "bytes32"
        },
        {
          "internalType": "uint256",
          "name": "_type",
          "type": "uint256"
        }
      ],
      "name": "getOrderBook",
      "outputs": [
        {
          "components": [
            {
              "internalType": "uint256",
              "name": "id",
              "type": "uint256"
            },
            {
              "internalType": "address",
              "name": "trader",
              "type": "address"
            },
            {
              "internalType": "enum Dex.Type",
              "name": "orderType",
              "type": "uint8"
            },
            {
              "internalType": "bytes32",
              "name": "ticker",
              "type": "bytes32"
            },
            {
              "internalType": "uint256",
              "name": "amount",
              "type": "uint256"
            },
            {
              "internalType": "uint256",
              "name": "price",
              "type": "uint256"
            }
          ],
          "internalType": "struct Dex.Order[]",
          "name": "",
          "type": "tuple[]"
        }
      ],
      "stateMutability": "view",
      "type": "function",
      "constant": true
    },
    {
      "inputs": [
        {
          "internalType": "bytes32",
          "name": "_ticker",
          "type": "bytes32"
        },
        {
          "internalType": "enum Dex.Type",
          "name": "_order",
          "type": "uint8"
        }
      ],
      "name": "getOrderBook",
      "outputs": [
        {
          "components": [
            {
              "internalType": "uint256",
              "name": "id",
              "type": "uint256"
            },
            {
              "internalType": "address",
              "name": "trader",
              "type": "address"
            },
            {
              "internalType": "enum Dex.Type",
              "name": "orderType",
              "type": "uint8"
            },
            {
              "internalType": "bytes32",
              "name": "ticker",
              "type": "bytes32"
            },
            {
              "internalType": "uint256",
              "name": "amount",
              "type": "uint256"
            },
            {
              "internalType": "uint256",
              "name": "price",
              "type": "uint256"
            }
          ],
          "internalType": "struct Dex.Order[]",
          "name": "",
          "type": "tuple[]"
        }
      ],
      "stateMutability": "view",
      "type": "function",
      "constant": true
    },
    {
      "inputs": [
        {
          "internalType": "uint256",
          "name": "_orderType",
          "type": "uint256"
        },
        {
          "internalType": "bytes32",
          "name": "_ticker",
          "type": "bytes32"
        },
        {
          "internalType": "uint256",
          "name": "_amount",
          "type": "uint256"
        }
      ],
      "name": "createMarketOrder",
      "outputs": [
        {
          "internalType": "bool",
          "name": "result",
          "type": "bool"
        }
      ],
      "stateMutability": "nonpayable",
      "type": "function"
    }
  ],
  "bytecode": "0x60806040526040518060400160405280600381526020017f45544800000000000000000000000000000000000000000000000000000000008152506200004590620000a5565b6000553480156200005557600080fd5b5062000115565b600081519050919050565b6000819050602082019050919050565b6000819050919050565b60006200008f825162000077565b80915050919050565b600082821b905092915050565b6000620000b2826200005c565b82620000be8462000067565b9050620000cb8162000081565b925060208210156200010e57620001097fffffffffffffffffffffffffffffffffffffffffffffffffffffffffffffffff8360200360080262000098565b831692505b5050919050565b612a0080620001256000396000f3fe60806040526004361061009c5760003560e01c8063667cb4ba11610064578063667cb4ba146101775780637b2fcfff146101b55780637c4e88b5146101de5780639776aacf1461021b5780639ead722214610244578063ba58ea68146102815761009c565b8063040cf020146100a15780631585f8b8146100ca5780631de26e16146101075780631f14df6914610130578063439370b11461016d575b600080fd5b3480156100ad57600080fd5b506100c860048036038101906100c39190611ff4565b6102be565b005b3480156100d657600080fd5b506100f160048036038101906100ec9190611ff4565b610578565b6040516100fe9190612234565b60405180910390f35b34801561011357600080fd5b5061012e60048036038101906101299190611ff4565b6106b5565b005b34801561013c57600080fd5b5061015760048036038101906101529190612282565b61099f565b60405161016491906122d1565b60405180910390f35b6101756109c4565b005b34801561018357600080fd5b5061019e600480360381019061019991906122ec565b610a7f565b6040516101ac929190612337565b60405180910390f35b3480156101c157600080fd5b506101dc60048036038101906101d79190612360565b610ac3565b005b3480156101ea57600080fd5b50610205600480360381019061020091906123c7565b610ddb565b6040516102129190612435565b60405180910390f35b34801561022757600080fd5b50610242600480360381019061023d9190612450565b6113b2565b005b34801561025057600080fd5b5061026b60048036038101906102669190612490565b611471565b60405161027891906124bd565b60405180910390f35b34801561028d57600080fd5b506102a860048036038101906102a391906124fd565b611495565b6040516102b59190612234565b60405180910390f35b81600073ffffffffffffffffffffffffffffffffffffffff166001600083815260200190815260200160002060010160009054906101000a900473ffffffffffffffffffffffffffffffffffffffff1673ffffffffffffffffffffffffffffffffffffffff161415610365576040517f08c379a000000000000000000000000000000000000000000000000000000000815260040161035c9061259a565b60405180910390fd5b81600360003373ffffffffffffffffffffffffffffffffffffffff1673ffffffffffffffffffffffffffffffffffffffff16815260200190815260200160002060008581526020019081526020016000205410156103f8576040517f08c379a00000000000000000000000000000000000000000000000000000000081526004016103ef90612606565b60405180910390fd5b61045b82600360003373ffffffffffffffffffffffffffffffffffffffff1673ffffffffffffffffffffffffffffffffffffffff1681526020019081526020016000206000868152602001908152602001600020546115e490919063ffffffff16565b600360003373ffffffffffffffffffffffffffffffffffffffff1673ffffffffffffffffffffffffffffffffffffffff1681526020019081526020016000206000858152602001908152602001600020819055506001600084815260200190815260200160002060010160009054906101000a900473ffffffffffffffffffffffffffffffffffffffff1673ffffffffffffffffffffffffffffffffffffffff1663a9059cbb33846040518363ffffffff1660e01b8152600401610520929190612626565b602060405180830381600087803b15801561053a57600080fd5b505af115801561054e573d6000803e3d6000fd5b505050506040513d601f19601f82011682018060405250810190610572919061267b565b50505050565b6060600460008481526020019081526020016000206000838152602001908152602001600020805480602002602001604051908101604052809291908181526020016000905b828210156106a957838290600052602060002090600502016040518060c0016040529081600082015481526020016001820160009054906101000a900473ffffffffffffffffffffffffffffffffffffffff1673ffffffffffffffffffffffffffffffffffffffff1673ffffffffffffffffffffffffffffffffffffffff1681526020016001820160149054906101000a900460ff166001811115610666576106656120b0565b5b6001811115610678576106776120b0565b5b81526020016002820154815260200160038201548152602001600482015481525050815260200190600101906105be565b50505050905092915050565b81600073ffffffffffffffffffffffffffffffffffffffff166001600083815260200190815260200160002060010160009054906101000a900473ffffffffffffffffffffffffffffffffffffffff1673ffffffffffffffffffffffffffffffffffffffff16141561075c576040517f08c379a00000000000000000000000000000000000000000000000000000000081526004016107539061259a565b60405180910390fd5b6001600084815260200190815260200160002060010160009054906101000a900473ffffffffffffffffffffffffffffffffffffffff1673ffffffffffffffffffffffffffffffffffffffff166323b872dd3330856040518463ffffffff1660e01b81526004016107cf939291906126a8565b602060405180830381600087803b1580156107e957600080fd5b505af11580156107fd573d6000803e3d6000fd5b505050506040513d601f19601f82011682018060405250810190610821919061267b565b506000600360003373ffffffffffffffffffffffffffffffffffffffff1673ffffffffffffffffffffffffffffffffffffffff16815260200190815260200160002060008581526020019081526020016000205490506108da83600360003373ffffffffffffffffffffffffffffffffffffffff1673ffffffffffffffffffffffffffffffffffffffff1681526020019081526020016000206000878152602001908152602001600020546115fa90919063ffffffff16565b600360003373ffffffffffffffffffffffffffffffffffffffff1673ffffffffffffffffffffffffffffffffffffffff168152602001908152602001600020600086815260200190815260200160002081905550828161093a919061270e565b600360003373ffffffffffffffffffffffffffffffffffffffff1673ffffffffffffffffffffffffffffffffffffffff1681526020019081526020016000206000868152602001908152602001600020541461099957610998612764565b5b50505050565b6003602052816000526040600020602052806000526040600020600091509150505481565b610a2834600360003373ffffffffffffffffffffffffffffffffffffffff1673ffffffffffffffffffffffffffffffffffffffff168152602001908152602001600020600080548152602001908152602001600020546115fa90919063ffffffff16565b600360003373ffffffffffffffffffffffffffffffffffffffff1673ffffffffffffffffffffffffffffffffffffffff16815260200190815260200160002060008054815260200190815260200160002081905550565b60016020528060005260406000206000915090508060000154908060010160009054906101000a900473ffffffffffffffffffffffffffffffffffffffff16905082565b6000841415610b7757610adf818361161090919063ffffffff16565b600360003373ffffffffffffffffffffffffffffffffffffffff1673ffffffffffffffffffffffffffffffffffffffff168152602001908152602001600020600080548152602001908152602001600020541015610b72576040517f08c379a0000000000000000000000000000000000000000000000000000000008152600401610b69906127df565b60405180910390fd5b610c0b565b81600360003373ffffffffffffffffffffffffffffffffffffffff1673ffffffffffffffffffffffffffffffffffffffff1681526020019081526020016000206000858152602001908152602001600020541015610c0a576040517f08c379a0000000000000000000000000000000000000000000000000000000008152600401610c019061284b565b60405180910390fd5b5b610c13611f22565b6004600085815260200190815260200160002060008681526020019081526020016000208054905081600001818152505033816020019073ffffffffffffffffffffffffffffffffffffffff16908173ffffffffffffffffffffffffffffffffffffffff168152505060008514610c8b576001610c8e565b60005b81604001906001811115610ca557610ca46120b0565b5b90816001811115610cb957610cb86120b0565b5b815250508381606001818152505082816080018181525050818160a00181815250506004600085815260200190815260200160002060008681526020019081526020016000208190806001815401808255809150506001900390600052602060002090600502016000909190919091506000820151816000015560208201518160010160006101000a81548173ffffffffffffffffffffffffffffffffffffffff021916908373ffffffffffffffffffffffffffffffffffffffff16021790555060408201518160010160146101000a81548160ff02191690836001811115610da557610da46120b0565b5b0217905550606082015181600201556080820151816003015560a082015181600401555050610dd48486611626565b5050505050565b6000806001851890506000600460008681526020019081526020016000206000838152602001908152602001600020905060018214156113a957600080600080600360003373ffffffffffffffffffffffffffffffffffffffff1673ffffffffffffffffffffffffffffffffffffffff16815260200190815260200160002060008054815260200190815260200160002054905060005b858054905085108015610e855750600089115b156112ca576000868681548110610e9f57610e9e61286b565b5b90600052602060002090600502019050600360008260010160009054906101000a900473ffffffffffffffffffffffffffffffffffffffff1673ffffffffffffffffffffffffffffffffffffffff1673ffffffffffffffffffffffffffffffffffffffff16815260200190815260200160002060008c815260200190815260200160002054915089821015610f42578580610f399061289a565b96505050610e72565b898160030154106110fc5780600401548a610f5d91906128e3565b83106110f75789600360008360010160009054906101000a900473ffffffffffffffffffffffffffffffffffffffff1673ffffffffffffffffffffffffffffffffffffffff1673ffffffffffffffffffffffffffffffffffffffff16815260200190815260200160002060008d81526020019081526020016000206000828254610fe7919061293d565b9250508190555080600401548a610ffe91906128e3565b600360008360010160009054906101000a900473ffffffffffffffffffffffffffffffffffffffff1673ffffffffffffffffffffffffffffffffffffffff1673ffffffffffffffffffffffffffffffffffffffff1681526020019081526020016000206000805481526020019081526020016000206000828254611082919061270e565b92505081905550898160030154611099919061293d565b816003018190555080600401548a6110b191906128e3565b856110bc919061270e565b945089846110ca919061270e565b935080600401548a6110dc91906128e3565b836110e7919061293d565b92506000995060019850506112ca565b6112b6565b8060040154816003015461111091906128e3565b83106112b5578060030154600360008360010160009054906101000a900473ffffffffffffffffffffffffffffffffffffffff1673ffffffffffffffffffffffffffffffffffffffff1673ffffffffffffffffffffffffffffffffffffffff16815260200190815260200160002060008d8152602001908152602001600020600082825461119e919061293d565b92505081905550806004015481600301546111b991906128e3565b600360008360010160009054906101000a900473ffffffffffffffffffffffffffffffffffffffff1673ffffffffffffffffffffffffffffffffffffffff1673ffffffffffffffffffffffffffffffffffffffff168152602001908152602001600020600080548152602001908152602001600020600082825461123d919061270e565b9250508190555080600301548a611254919061293d565b99508060040154816003015461126a91906128e3565b85611275919061270e565b9450806003015484611287919061270e565b93508060040154816003015461129d91906128e3565b836112a8919061293d565b9250600081600301819055505b5b85806112c19061289a565b96505050610e72565b83600360003373ffffffffffffffffffffffffffffffffffffffff1673ffffffffffffffffffffffffffffffffffffffff168152602001908152602001600020600080548152602001908152602001600020600082825461132b919061293d565b9250508190555082600360003373ffffffffffffffffffffffffffffffffffffffff1673ffffffffffffffffffffffffffffffffffffffff16815260200190815260200160002060008c81526020019081526020016000206000828254611392919061270e565b925050819055506113a38a88611c87565b50505050505b50509392505050565b60405180604001604052808381526020018273ffffffffffffffffffffffffffffffffffffffff16815250600160008481526020019081526020016000206000820151816000015560208201518160010160006101000a81548173ffffffffffffffffffffffffffffffffffffffff021916908373ffffffffffffffffffffffffffffffffffffffff16021790555090505060028290806001815401808255809150506001900390600052602060002001600090919091909150555050565b6002818154811061148157600080fd5b906000526020600020016000915090505481565b60606004600084815260200190815260200160002060008360018111156114bf576114be6120b0565b5b8152602001908152602001600020805480602002602001604051908101604052809291908181526020016000905b828210156115d857838290600052602060002090600502016040518060c0016040529081600082015481526020016001820160009054906101000a900473ffffffffffffffffffffffffffffffffffffffff1673ffffffffffffffffffffffffffffffffffffffff1673ffffffffffffffffffffffffffffffffffffffff1681526020016001820160149054906101000a900460ff166001811115611595576115946120b0565b5b60018111156115a7576115a66120b0565b5b81526020016002820154815260200160038201548152602001600482015481525050815260200190600101906114ed565b50505050905092915050565b600081836115f2919061293d565b905092915050565b60008183611608919061270e565b905092915050565b6000818361161e91906128e3565b905092915050565b6001600460008481526020019081526020016000206000838152602001908152602001600020805490501115611c83576000600460008481526020019081526020016000206000838152602001908152602001600020905060008214156119815760006001600460008681526020019081526020016000206000858152602001908152602001600020805490506116bd919061293d565b90505b6000811180156117235750816001826116d9919061293d565b815481106116ea576116e961286b565b5b90600052602060002090600502016004015482828154811061170f5761170e61286b565b5b906000526020600020906005020160040154115b1561197b57600082828154811061173d5761173c61286b565b5b906000526020600020906005020190508260018361175b919061293d565b8154811061176c5761176b61286b565b5b906000526020600020906005020183838154811061178d5761178c61286b565b5b9060005260206000209060050201600082015481600001556001820160009054906101000a900473ffffffffffffffffffffffffffffffffffffffff168160010160006101000a81548173ffffffffffffffffffffffffffffffffffffffff021916908373ffffffffffffffffffffffffffffffffffffffff1602179055506001820160149054906101000a900460ff168160010160146101000a81548160ff02191690836001811115611844576118436120b0565b5b02179055506002820154816002015560038201548160030155600482015481600401559050508083600184611879919061293d565b8154811061188a5761188961286b565b5b9060005260206000209060050201600082015481600001556001820160009054906101000a900473ffffffffffffffffffffffffffffffffffffffff168160010160006101000a81548173ffffffffffffffffffffffffffffffffffffffff021916908373ffffffffffffffffffffffffffffffffffffffff1602179055506001820160149054906101000a900460ff168160010160146101000a81548160ff02191690836001811115611941576119406120b0565b5b0217905550600282015481600201556003820154816003015560048201548160040155905050818061197290612971565b925050506116c0565b50611c81565b6001821415611c805760006001600460008681526020019081526020016000206000858152602001908152602001600020805490506119c0919061293d565b90505b600081118015611a265750816001826119dc919061293d565b815481106119ed576119ec61286b565b5b906000526020600020906005020160040154828281548110611a1257611a1161286b565b5b906000526020600020906005020160040154105b15611c7e576000828281548110611a4057611a3f61286b565b5b9060005260206000209060050201905082600183611a5e919061293d565b81548110611a6f57611a6e61286b565b5b9060005260206000209060050201838381548110611a9057611a8f61286b565b5b9060005260206000209060050201600082015481600001556001820160009054906101000a900473ffffffffffffffffffffffffffffffffffffffff168160010160006101000a81548173ffffffffffffffffffffffffffffffffffffffff021916908373ffffffffffffffffffffffffffffffffffffffff1602179055506001820160149054906101000a900460ff168160010160146101000a81548160ff02191690836001811115611b4757611b466120b0565b5b02179055506002820154816002015560038201548160030155600482015481600401559050508083600184611b7c919061293d565b81548110611b8d57611b8c61286b565b5b9060005260206000209060050201600082015481600001556001820160009054906101000a900473ffffffffffffffffffffffffffffffffffffffff168160010160006101000a81548173ffffffffffffffffffffffffffffffffffffffff021916908373ffffffffffffffffffffffffffffffffffffffff1602179055506001820160149054906101000a900460ff168160010160146101000a81548160ff02191690836001811115611c4457611c436120b0565b5b02179055506002820154816002015560038201548160030155600482015481600401559050508180611c7590612971565b925050506119c3565b505b5b505b5050565b6000600460008481526020019081526020016000206000838152602001908152602001600020905060007fffffffffffffffffffffffffffffffffffffffffffffffffffffffffffffffff905060005b8280549050811015611d27576000838281548110611cf857611cf761286b565b5b9060005260206000209060050201600301541415611d14578091505b8080611d1f9061289a565b915050611cd7565b5060008112611f1c576000808290505b8380549050811015611e7357838181548110611d5657611d5561286b565b5b9060005260206000209060050201848380611d709061289a565b945081548110611d8357611d8261286b565b5b9060005260206000209060050201600082015481600001556001820160009054906101000a900473ffffffffffffffffffffffffffffffffffffffff168160010160006101000a81548173ffffffffffffffffffffffffffffffffffffffff021916908373ffffffffffffffffffffffffffffffffffffffff1602179055506001820160149054906101000a900460ff168160010160146101000a81548160ff02191690836001811115611e3a57611e396120b0565b5b02179055506002820154816002015560038201548160030155600482015481600401559050508080611e6b9061289a565b915050611d37565b5081905060005b818111611f195783805480611e9257611e9161299b565b5b60019003818190600052602060002090600502016000808201600090556001820160006101000a81549073ffffffffffffffffffffffffffffffffffffffff02191690556001820160146101000a81549060ff0219169055600282016000905560038201600090556004820160009055505090558080611f119061289a565b915050611e7a565b50505b50505050565b6040518060c0016040528060008152602001600073ffffffffffffffffffffffffffffffffffffffff16815260200160006001811115611f6557611f646120b0565b5b81526020016000801916815260200160008152602001600081525090565b600080fd5b6000819050919050565b611f9b81611f88565b8114611fa657600080fd5b50565b600081359050611fb881611f92565b92915050565b6000819050919050565b611fd181611fbe565b8114611fdc57600080fd5b50565b600081359050611fee81611fc8565b92915050565b6000806040838503121561200b5761200a611f83565b5b600061201985828601611fa9565b925050602061202a85828601611fdf565b9150509250929050565b600081519050919050565b600082825260208201905092915050565b6000819050602082019050919050565b61206981611fbe565b82525050565b600073ffffffffffffffffffffffffffffffffffffffff82169050919050565b600061209a8261206f565b9050919050565b6120aa8161208f565b82525050565b7f4e487b7100000000000000000000000000000000000000000000000000000000600052602160045260246000fd5b600281106120f0576120ef6120b0565b5b50565b6000819050612101826120df565b919050565b6000612111826120f3565b9050919050565b61212181612106565b82525050565b61213081611f88565b82525050565b60c08201600082015161214c6000850182612060565b50602082015161215f60208501826120a1565b5060408201516121726040850182612118565b5060608201516121856060850182612127565b5060808201516121986080850182612060565b5060a08201516121ab60a0850182612060565b50505050565b60006121bd8383612136565b60c08301905092915050565b6000602082019050919050565b60006121e182612034565b6121eb818561203f565b93506121f683612050565b8060005b8381101561222757815161220e88826121b1565b9750612219836121c9565b9250506001810190506121fa565b5085935050505092915050565b6000602082019050818103600083015261224e81846121d6565b905092915050565b61225f8161208f565b811461226a57600080fd5b50565b60008135905061227c81612256565b92915050565b6000806040838503121561229957612298611f83565b5b60006122a78582860161226d565b92505060206122b885828601611fa9565b9150509250929050565b6122cb81611fbe565b82525050565b60006020820190506122e660008301846122c2565b92915050565b60006020828403121561230257612301611f83565b5b600061231084828501611fa9565b91505092915050565b61232281611f88565b82525050565b6123318161208f565b82525050565b600060408201905061234c6000830185612319565b6123596020830184612328565b9392505050565b6000806000806080858703121561237a57612379611f83565b5b600061238887828801611fdf565b945050602061239987828801611fa9565b93505060406123aa87828801611fdf565b92505060606123bb87828801611fdf565b91505092959194509250565b6000806000606084860312156123e0576123df611f83565b5b60006123ee86828701611fdf565b93505060206123ff86828701611fa9565b925050604061241086828701611fdf565b9150509250925092565b60008115159050919050565b61242f8161241a565b82525050565b600060208201905061244a6000830184612426565b92915050565b6000806040838503121561246757612466611f83565b5b600061247585828601611fa9565b92505060206124868582860161226d565b9150509250929050565b6000602082840312156124a6576124a5611f83565b5b60006124b484828501611fdf565b91505092915050565b60006020820190506124d26000830184612319565b92915050565b600281106124e557600080fd5b50565b6000813590506124f7816124d8565b92915050565b6000806040838503121561251457612513611f83565b5b600061252285828601611fa9565b9250506020612533858286016124e8565b9150509250929050565b600082825260208201905092915050565b7f546f6b656e20646f6573206e6f74206578697374730000000000000000000000600082015250565b600061258460158361253d565b915061258f8261254e565b602082019050919050565b600060208201905081810360008301526125b381612577565b9050919050565b7f496e73756666696369656e742062616c616e6365210000000000000000000000600082015250565b60006125f060158361253d565b91506125fb826125ba565b602082019050919050565b6000602082019050818103600083015261261f816125e3565b9050919050565b600060408201905061263b6000830185612328565b61264860208301846122c2565b9392505050565b6126588161241a565b811461266357600080fd5b50565b6000815190506126758161264f565b92915050565b60006020828403121561269157612690611f83565b5b600061269f84828501612666565b91505092915050565b60006060820190506126bd6000830186612328565b6126ca6020830185612328565b6126d760408301846122c2565b949350505050565b7f4e487b7100000000000000000000000000000000000000000000000000000000600052601160045260246000fd5b600061271982611fbe565b915061272483611fbe565b9250827fffffffffffffffffffffffffffffffffffffffffffffffffffffffffffffffff03821115612759576127586126df565b5b828201905092915050565b7f4e487b7100000000000000000000000000000000000000000000000000000000600052600160045260246000fd5b7f4e6f7420656e6f7567682045544820666f7220746865206f7264657200000000600082015250565b60006127c9601c8361253d565b91506127d482612793565b602082019050919050565b600060208201905081810360008301526127f8816127bc565b9050919050565b7f4e6f7420656e6f75676820746f6b656e20666f7220746865206f726465720000600082015250565b6000612835601e8361253d565b9150612840826127ff565b602082019050919050565b6000602082019050818103600083015261286481612828565b9050919050565b7f4e487b7100000000000000000000000000000000000000000000000000000000600052603260045260246000fd5b60006128a582611fbe565b91507fffffffffffffffffffffffffffffffffffffffffffffffffffffffffffffffff8214156128d8576128d76126df565b5b600182019050919050565b60006128ee82611fbe565b91506128f983611fbe565b9250817fffffffffffffffffffffffffffffffffffffffffffffffffffffffffffffffff0483118215151615612932576129316126df565b5b828202905092915050565b600061294882611fbe565b915061295383611fbe565b925082821015612966576129656126df565b5b828203905092915050565b600061297c82611fbe565b915060008214156129905761298f6126df565b5b600182039050919050565b7f4e487b7100000000000000000000000000000000000000000000000000000000600052603160045260246000fdfea26469706673582212201dbbef1e27dd3916e22685ece978160c79e7250be864e7b62f39a927374c7a3864736f6c63430008090033",
  "immutableReferences": {},
  "source": "pragma solidity ^0.8.0;\nimport \"./wallet.sol\";\n\ncontract Dex is Wallet{\n\n    using SafeMath for uint256;\n    enum Type{\n        BUY,\n        SELL\n    }\n\n\n    struct Order{\n        uint id;\n        address trader;\n        Type orderType;\n        bytes32 ticker;\n        uint amount;\n        uint price;\n    }\n\n    mapping(bytes32 => mapping(uint => Order[])) orderBook;\n\n    function _sort(bytes32 _ticker,uint _type)private{\n        if(orderBook[_ticker][_type].length > 1){\n            Order[] storage array = orderBook[_ticker][_type];\n            if(_type == 0 ){\n                uint index = orderBook[_ticker][_type].length - 1;\n                while(index > 0 && array[index].price > array[index - 1].price){\n                    Order storage temp = array[index];\n                    array[index] = array[index - 1];\n                    array[index - 1 ] = temp;\n                    index--;\n                }\n            }\n            else if(_type == 1 ){\n                uint index = orderBook[_ticker][_type].length - 1;\n                while(index > 0 && array[index].price < array[index - 1].price){\n                    Order storage temp = array[index];\n                    array[index] = array[index - 1];\n                    array[index - 1 ] = temp;\n                    index--;\n                }\n            }\n        }\n    }\n\n    function getOrderBook(bytes32 _ticker, Type _order) public view returns(Order[] memory){\n        return orderBook[_ticker][uint(_order)];\n    }\n\n    function createLimitOrder(uint _orderType, bytes32 _ticker, uint _amount, uint _price)public {\n        if(_orderType == 0){\n            require(balances[msg.sender][ethTicker] >= _amount.mul(_price),\"Not enough ETH for the order\");\n        }\n        else{\n            require(balances[msg.sender][_ticker] >= _amount,\"Not enough token for the order\");\n        }\n        Order memory _temp;\n        _temp.id = orderBook[_ticker][_orderType].length;\n        _temp.trader = msg.sender;\n        _temp.orderType = _orderType == 0?Type.BUY:Type.SELL;\n        _temp.ticker = _ticker;\n        _temp.amount = _amount;\n        _temp.price = _price;\n        orderBook[_ticker][_orderType].push(_temp);\n        _sort(_ticker,_orderType);\n    }\n\n    function getOrderBook(bytes32 _ticker, uint _type)public view returns(Order[] memory){\n        return orderBook[_ticker][_type];\n    }\n\n    function createMarketOrder(uint _orderType, bytes32 _ticker, uint _amount)public returns(bool result){\n        uint otype = _orderType ^ 1;\n        Order[] storage orders = orderBook[_ticker][otype];\n        if(otype == 1){\n            uint index = 0;\n            uint totalCost = 0;\n            uint totalToken = 0;\n            uint buyerEth = balances[msg.sender][ethTicker];\n            uint sellerToken = 0;\n            while(index < orders.length && _amount > 0){\n                Order storage order = orders[index];\n                sellerToken = balances[order.trader][_ticker];\n                if(sellerToken < _amount){\n                    index++;\n                    continue;\n                }\n                if(order.amount >= _amount){\n                    if(buyerEth >= _amount * order.price){\n                        balances[order.trader][_ticker]-= _amount;\n                        balances[order.trader][ethTicker]+= _amount * order.price;\n                        order.amount = order.amount - _amount;\n                        totalCost+= _amount * order.price;\n                        totalToken+= _amount;\n                        buyerEth-=_amount * order.price;\n                        _amount = 0;\n                        result = true;\n                        break;\n                    }\n                }\n                else{\n                    if(buyerEth >= order.amount * order.price){\n                        balances[order.trader][_ticker]-=order.amount;\n                        balances[order.trader][ethTicker]+= order.amount * order.price;\n                        _amount-= order.amount;\n                        totalCost+= order.amount * order.price;\n                        totalToken+= order.amount;\n                        buyerEth-= order.amount * order.price;\n                        order.amount = 0;\n                    }\n                }\n                index++;\n            }\n            balances[msg.sender][ethTicker]-= totalCost;\n            balances[msg.sender][_ticker]+= totalToken;\n            _delete(_ticker,otype);\n        }\n    }\n\n    function _delete(bytes32 _ticker, uint _type)private{\n        Order[] storage orders = orderBook[_ticker][_type];\n        int index = -1;\n        for(uint i=0; i<orders.length; i++){\n            if(orders[i].amount == 0){\n                index = int(i);\n            }\n        }\n        if(index >= 0){\n            uint k = 0;\n            for(uint i = uint(index); i<orders.length; i++){\n                orders[k++] = orders[i];\n            }\n            k = uint(index);\n            for(uint i=0; i<=k; i++){\n                orders.pop();\n            }\n        }\n    }\n}",
  "sourcePath": "/Users/dexer/Desktop/work/solidity/dexchange/contracts/dex.sol",
  "compiler": {
    "name": "solc",
    "version": "0.8.9+commit.e5eed63a.Emscripten.clang"
  },
  "schemaVersion": "3.4.3",
  "updatedAt": "2021-11-16T11:59:25.059Z",
  "networkType": "ethereum",
  "devdoc": {
    "kind": "dev",
    "methods": {},
    "version": 1
  },
  "userdoc": {
    "kind": "user",
    "methods": {},
    "version": 1
  }
}