{
  "contractName": "Wallet",
  "abi": [
    {
      "inputs": [
        {
          "internalType": "address",
          "name": "",
          "type": "address"
        },
        {
          "internalType": "bytes32",
          "name": "",
          "type": "bytes32"
        }
      ],
      "name": "balances",
      "outputs": [
        {
          "internalType": "uint256",
          "name": "",
          "type": "uint256"
        }
      ],
      "stateMutability": "view",
      "type": "function"
    },
    {
      "inputs": [
        {
          "internalType": "uint256",
          "name": "",
          "type": "uint256"
        }
      ],
      "name": "tokenList",
      "outputs": [
        {
          "internalType": "bytes32",
          "name": "",
          "type": "bytes32"
        }
      ],
      "stateMutability": "view",
      "type": "function"
    },
    {
      "inputs": [
        {
          "internalType": "bytes32",
          "name": "",
          "type": "bytes32"
        }
      ],
      "name": "tokenMapping",
      "outputs": [
        {
          "internalType": "bytes32",
          "name": "ticker",
          "type": "bytes32"
        },
        {
          "internalType": "address",
          "name": "tokenAddress",
          "type": "address"
        }
      ],
      "stateMutability": "view",
      "type": "function"
    },
    {
      "inputs": [],
      "name": "depositEth",
      "outputs": [],
      "stateMutability": "payable",
      "type": "function"
    },
    {
      "inputs": [
        {
          "internalType": "bytes32",
          "name": "_ticker",
          "type": "bytes32"
        },
        {
          "internalType": "address",
          "name": "_tokenAddress",
          "type": "address"
        }
      ],
      "name": "addToken",
      "outputs": [],
      "stateMutability": "nonpayable",
      "type": "function"
    },
    {
      "inputs": [
        {
          "internalType": "bytes32",
          "name": "_ticker",
          "type": "bytes32"
        },
        {
          "internalType": "uint256",
          "name": "_amount",
          "type": "uint256"
        }
      ],
      "name": "deposit",
      "outputs": [],
      "stateMutability": "nonpayable",
      "type": "function"
    },
    {
      "inputs": [
        {
          "internalType": "bytes32",
          "name": "_ticker",
          "type": "bytes32"
        },
        {
          "internalType": "uint256",
          "name": "_amount",
          "type": "uint256"
        }
      ],
      "name": "withdraw",
      "outputs": [],
      "stateMutability": "nonpayable",
      "type": "function"
    }
  ],
  "bytecode": "0x60806040526040518060400160405280600381526020017f45544800000000000000000000000000000000000000000000000000000000008152506100439061009f565b60005534801561005257600080fd5b50610106565b600081519050919050565b6000819050602082019050919050565b6000819050919050565b60006100898251610073565b80915050919050565b600082821b905092915050565b60006100aa82610058565b826100b484610063565b90506100bf8161007d565b925060208210156100ff576100fa7fffffffffffffffffffffffffffffffffffffffffffffffffffffffffffffffff83602003600802610092565b831692505b5050919050565b610eca806101156000396000f3fe6080604052600436106100705760003560e01c8063439370b11161004e578063439370b114610104578063667cb4ba1461010e5780639776aacf1461014c5780639ead72221461017557610070565b8063040cf020146100755780631de26e161461009e5780631f14df69146100c7575b600080fd5b34801561008157600080fd5b5061009c600480360381019061009791906109fa565b6101b2565b005b3480156100aa57600080fd5b506100c560048036038101906100c091906109fa565b61046c565b005b3480156100d357600080fd5b506100ee60048036038101906100e99190610a98565b610756565b6040516100fb9190610ae7565b60405180910390f35b61010c61077b565b005b34801561011a57600080fd5b5061013560048036038101906101309190610b02565b610836565b604051610143929190610b4d565b60405180910390f35b34801561015857600080fd5b50610173600480360381019061016e9190610b76565b61087a565b005b34801561018157600080fd5b5061019c60048036038101906101979190610bb6565b610939565b6040516101a99190610be3565b60405180910390f35b81600073ffffffffffffffffffffffffffffffffffffffff166001600083815260200190815260200160002060010160009054906101000a900473ffffffffffffffffffffffffffffffffffffffff1673ffffffffffffffffffffffffffffffffffffffff161415610259576040517f08c379a000000000000000000000000000000000000000000000000000000000815260040161025090610c5b565b60405180910390fd5b81600360003373ffffffffffffffffffffffffffffffffffffffff1673ffffffffffffffffffffffffffffffffffffffff16815260200190815260200160002060008581526020019081526020016000205410156102ec576040517f08c379a00000000000000000000000000000000000000000000000000000000081526004016102e390610cc7565b60405180910390fd5b61034f82600360003373ffffffffffffffffffffffffffffffffffffffff1673ffffffffffffffffffffffffffffffffffffffff16815260200190815260200160002060008681526020019081526020016000205461095d90919063ffffffff16565b600360003373ffffffffffffffffffffffffffffffffffffffff1673ffffffffffffffffffffffffffffffffffffffff1681526020019081526020016000206000858152602001908152602001600020819055506001600084815260200190815260200160002060010160009054906101000a900473ffffffffffffffffffffffffffffffffffffffff1673ffffffffffffffffffffffffffffffffffffffff1663a9059cbb33846040518363ffffffff1660e01b8152600401610414929190610ce7565b602060405180830381600087803b15801561042e57600080fd5b505af1158015610442573d6000803e3d6000fd5b505050506040513d601f19601f820116820180604052508101906104669190610d48565b50505050565b81600073ffffffffffffffffffffffffffffffffffffffff166001600083815260200190815260200160002060010160009054906101000a900473ffffffffffffffffffffffffffffffffffffffff1673ffffffffffffffffffffffffffffffffffffffff161415610513576040517f08c379a000000000000000000000000000000000000000000000000000000000815260040161050a90610c5b565b60405180910390fd5b6001600084815260200190815260200160002060010160009054906101000a900473ffffffffffffffffffffffffffffffffffffffff1673ffffffffffffffffffffffffffffffffffffffff166323b872dd3330856040518463ffffffff1660e01b815260040161058693929190610d75565b602060405180830381600087803b1580156105a057600080fd5b505af11580156105b4573d6000803e3d6000fd5b505050506040513d601f19601f820116820180604052508101906105d89190610d48565b506000600360003373ffffffffffffffffffffffffffffffffffffffff1673ffffffffffffffffffffffffffffffffffffffff168152602001908152602001600020600085815260200190815260200160002054905061069183600360003373ffffffffffffffffffffffffffffffffffffffff1673ffffffffffffffffffffffffffffffffffffffff16815260200190815260200160002060008781526020019081526020016000205461097390919063ffffffff16565b600360003373ffffffffffffffffffffffffffffffffffffffff1673ffffffffffffffffffffffffffffffffffffffff16815260200190815260200160002060008681526020019081526020016000208190555082816106f19190610ddb565b600360003373ffffffffffffffffffffffffffffffffffffffff1673ffffffffffffffffffffffffffffffffffffffff168152602001908152602001600020600086815260200190815260200160002054146107505761074f610e31565b5b50505050565b6003602052816000526040600020602052806000526040600020600091509150505481565b6107df34600360003373ffffffffffffffffffffffffffffffffffffffff1673ffffffffffffffffffffffffffffffffffffffff1681526020019081526020016000206000805481526020019081526020016000205461097390919063ffffffff16565b600360003373ffffffffffffffffffffffffffffffffffffffff1673ffffffffffffffffffffffffffffffffffffffff16815260200190815260200160002060008054815260200190815260200160002081905550565b60016020528060005260406000206000915090508060000154908060010160009054906101000a900473ffffffffffffffffffffffffffffffffffffffff16905082565b60405180604001604052808381526020018273ffffffffffffffffffffffffffffffffffffffff16815250600160008481526020019081526020016000206000820151816000015560208201518160010160006101000a81548173ffffffffffffffffffffffffffffffffffffffff021916908373ffffffffffffffffffffffffffffffffffffffff16021790555090505060028290806001815401808255809150506001900390600052602060002001600090919091909150555050565b6002818154811061094957600080fd5b906000526020600020016000915090505481565b6000818361096b9190610e60565b905092915050565b600081836109819190610ddb565b905092915050565b600080fd5b6000819050919050565b6109a18161098e565b81146109ac57600080fd5b50565b6000813590506109be81610998565b92915050565b6000819050919050565b6109d7816109c4565b81146109e257600080fd5b50565b6000813590506109f4816109ce565b92915050565b60008060408385031215610a1157610a10610989565b5b6000610a1f858286016109af565b9250506020610a30858286016109e5565b9150509250929050565b600073ffffffffffffffffffffffffffffffffffffffff82169050919050565b6000610a6582610a3a565b9050919050565b610a7581610a5a565b8114610a8057600080fd5b50565b600081359050610a9281610a6c565b92915050565b60008060408385031215610aaf57610aae610989565b5b6000610abd85828601610a83565b9250506020610ace858286016109af565b9150509250929050565b610ae1816109c4565b82525050565b6000602082019050610afc6000830184610ad8565b92915050565b600060208284031215610b1857610b17610989565b5b6000610b26848285016109af565b91505092915050565b610b388161098e565b82525050565b610b4781610a5a565b82525050565b6000604082019050610b626000830185610b2f565b610b6f6020830184610b3e565b9392505050565b60008060408385031215610b8d57610b8c610989565b5b6000610b9b858286016109af565b9250506020610bac85828601610a83565b9150509250929050565b600060208284031215610bcc57610bcb610989565b5b6000610bda848285016109e5565b91505092915050565b6000602082019050610bf86000830184610b2f565b92915050565b600082825260208201905092915050565b7f546f6b656e20646f6573206e6f74206578697374730000000000000000000000600082015250565b6000610c45601583610bfe565b9150610c5082610c0f565b602082019050919050565b60006020820190508181036000830152610c7481610c38565b9050919050565b7f496e73756666696369656e742062616c616e6365210000000000000000000000600082015250565b6000610cb1601583610bfe565b9150610cbc82610c7b565b602082019050919050565b60006020820190508181036000830152610ce081610ca4565b9050919050565b6000604082019050610cfc6000830185610b3e565b610d096020830184610ad8565b9392505050565b60008115159050919050565b610d2581610d10565b8114610d3057600080fd5b50565b600081519050610d4281610d1c565b92915050565b600060208284031215610d5e57610d5d610989565b5b6000610d6c84828501610d33565b91505092915050565b6000606082019050610d8a6000830186610b3e565b610d976020830185610b3e565b610da46040830184610ad8565b949350505050565b7f4e487b7100000000000000000000000000000000000000000000000000000000600052601160045260246000fd5b6000610de6826109c4565b9150610df1836109c4565b9250827fffffffffffffffffffffffffffffffffffffffffffffffffffffffffffffffff03821115610e2657610e25610dac565b5b828201905092915050565b7f4e487b7100000000000000000000000000000000000000000000000000000000600052600160045260246000fd5b6000610e6b826109c4565b9150610e76836109c4565b925082821015610e8957610e88610dac565b5b82820390509291505056fea2646970667358221220c91ce160713056c29896fe8e60276515b9817ef38d69915851437d4e894e3ee764736f6c63430008090033",
  "immutableReferences": {},
  "source": "pragma solidity ^0.8.0;\n\nimport \"../node_modules/@openzeppelin/contracts/token/ERC20/IERC20.sol\";\nimport \"../node_modules/@openzeppelin/contracts/utils/math/SafeMath.sol\";\n\ncontract Wallet{\n\n    using SafeMath for uint256;\n\n    struct Token{\n        bytes32 ticker;\n        address tokenAddress;\n    }\n\n    bytes32 ethTicker = bytes32(bytes(\"ETH\"));\n\n    mapping(bytes32 => Token) public tokenMapping;\n    bytes32[] public tokenList;\n\n    mapping(address => mapping(bytes32 => uint256)) public balances;\n\n    modifier tokenExists(bytes32 _ticker){\n        require(tokenMapping[_ticker].tokenAddress != address(0),\"Token does not exists\");\n        _;\n    }\n    function depositEth() payable external{\n        balances[msg.sender][ethTicker] = balances[msg.sender][ethTicker].add(msg.value);\n    }\n\n    function addToken(bytes32 _ticker, address _tokenAddress) external{\n        tokenMapping[_ticker] = Token(_ticker,_tokenAddress);\n        tokenList.push(_ticker);\n    }\n\n    function deposit(bytes32 _ticker, uint256 _amount)tokenExists(_ticker) external{\n        IERC20(tokenMapping[_ticker].tokenAddress).transferFrom(msg.sender, address(this), _amount);\n        uint balance = balances[msg.sender][_ticker];\n        balances[msg.sender][_ticker] = balances[msg.sender][_ticker].add(_amount);\n        assert(balances[msg.sender][_ticker] == balance + _amount);\n    }\n\n    function withdraw(bytes32 _ticker, uint256 _amount)tokenExists(_ticker) external{\n        require(balances[msg.sender][_ticker] >= _amount,\"Insufficient balance!\");\n        balances[msg.sender][_ticker] = balances[msg.sender][_ticker].sub(_amount);\n        IERC20(tokenMapping[_ticker].tokenAddress).transfer(msg.sender, _amount);\n    }\n}",
  "sourcePath": "/Users/dexer/Desktop/work/solidity/dexchange/contracts/wallet.sol",
  "compiler": {
    "name": "solc",
    "version": "0.8.9+commit.e5eed63a.Emscripten.clang"
  },
  "schemaVersion": "3.4.3",
  "updatedAt": "2021-11-16T11:46:47.808Z",
  "devdoc": {
    "kind": "dev",
    "methods": {},
    "version": 1
  },
  "userdoc": {
    "kind": "user",
    "methods": {},
    "version": 1
  }
}